:020000040000FA
:040800000CEF04F005
:10080800FACF01F0FBCF02F0E9CF03F074ED09F065
:10081800B3EF0BF000010000000A000000640000C4
:1008280000E803000010270000A086010040420FE6
:10083800008096980000E1F50500CA9A3B54616370
:10084800686F6D65746572202852504D290020200C
:10085800202000256C64002564000000000E0001C3
:10086800C36F350E0001C26F17D10001CA51250AA6
:10087800D8B40AD031C0D9FF32C0DAFF0001CAC0EB
:10088800DFFF314A322A08D1000E0001C46F02D0BE
:100898000001C48933C0F6FF34C0F7FF334A342A55
:1008A80008000001F5CFCAF00001CA51000AD8B407
:1008B80000D1640AD8B407D00D0AD8B404D0050A08
:1008C800D8B4E6D7E9D00001C4A912D0C2C0D9FF74
:1008D800C3C0DAFF0001DECFC5F00001DECFC6F0ED
:1008E8000001DECFC7F00001DECFC8F0040E14D03F
:1008F800C2C0D9FFC3C0DAFF0001DECFC5F00001D6
:10090800DDCFC6F00001000E0001C6BFFF0E0001DA
:10091800C76F0001C86F020E0001C227000E000158
:10092800C3230001C851800A800F0BE1000E0001AB
:10093800C75D07E1000E0001C65D03E1000E00017E
:10094800C55DD8B012D0030E0001C4130001C81F42
:100958000001C71F0001C61F0001C56D000E000180
:10096800C6230001C7230001C823010E0001CA6F76
:100978000001CA510A0AD8B41ED00001CA51040D98
:100988001D0EF324F66E080EF420F76E0900F550DC
:100998000001C55D0900F5500001C6590900F55070
:1009A8000001C7590900F5500001C859D8A003D063
:1009B8000001CA2BDDD7C4C039F0030E3916D8B4EC
:1009C80008D031C0D9FF32C0DAFF2D0EDF6E314AB0
:1009D800322A0001CA510001C06F0001C16B000139
:1009E800C0BFC1074FD00001C0C039F00001C1C06D
:1009F8003AF0D89039363A36D89039363A361D0E0C
:100A08003924F66E080E3A20F76E0900F5CF1FF06C
:100A18000900F5CF20F00900F5CF21F00A00F5CF45
:100A280022F0C5C01BF0C6C01CF0C7C01DF0C8C06E
:100A38001EF0B7EC0AF01BC028F01CC029F01DC03E
:100A48002AF01EC02BF00A0E2C6E000E2D6E000E22
:100A58002E6E000E2F6E2CEC0BF028C03BF029C038
:100A68003CF02AC03DF02BC03EF03B50300F000157
:100A7800CA6F31C0D9FF32C0DAFF0001CAC0DFFF38
:100A8800314A322A0001C007D8A0C1070001C02995
:100A9800D8B4C129D8A4A7D733C0F6FF34C0F7FF0C
:100AA800334A342A08000001F5CFCAF00001CA67AA
:100AB800DCD631C0D9FF32C0DAFF000EDF6E12007B
:100AC800146E1304D8B402D0136625D11F0E146413
:100AD800C1D021D113B002D0809001D080801BD129
:100AE80013B002D0809201D0808215D113B002D009
:100AF800809401D080840FD113B002D0809601D0A9
:100B0800808609D113B002D0809801D0808803D1A3
:100B180013B002D0809A01D0808AFDD013B002D0E1
:100B2800819001D08180F7D013B002D0819201D09A
:100B38008182F1D013B002D0819401D08184EBD0AE
:100B480013B002D0819601D08186E5D013B002D0CF
:100B5800819801D08188DFD013B002D0819A01D06A
:100B6800818AD9D013B002D0819C01D0818CD3D096
:100B780013B002D0819E01D0818ECDD013B002D0A7
:100B8800829001D08280C7D013B002D0829201D067
:100B98008282C1D013B002D0829401D08284BBD0AB
:100BA80013B002D0829801D08288B5D013B002D099
:100BB800829A01D0828AAFD013B002D0829C01D031
:100BC800828CA9D013B002D0829E01D0828EA3D08D
:100BD80013B002D0839001D083809DD013B002D08F
:100BE800839201D0838297D013B002D0839401D02E
:100BF800838491D013B002D0839601D083868BD0A2
:100C080013B002D0839801D0838885D013B002D066
:100C1800839A01D0838A7FD013B002D0839C01D0FD
:100C2800838C79D013B002D0839E01D0838E73D089
:100C380013B002D0849001D084806DD013B002D05C
:100C4800849201D0848267D013B002D0849401D0FA
:100C5800848461D01450000AD8B43CD7010AD8B4AF
:100C68003FD7030AD8B442D7010AD8B445D7070AF0
:100C7800D8B448D7010AD8B44BD7030AD8B44ED74A
:100C8800010AD8B451D70F0AD8B454D7010AD8B436
:100C980057D7030AD8B45AD7010AD8B45DD7070A78
:100CA800D8B460D7010AD8B463D7030AD8B466D7D2
:100CB800010AD8B469D71F0AD8B46CD7010AD8B4C6
:100CC8006FD7030AD8B472D7010AD8B475D7070A00
:100CD800D8B478D7010AD8B47BD7030AD8B47ED75A
:100CE800010AD8B481D70F0AD8B484D7010AD8B476
:100CF80087D7030AD8B48AD7010AD8B48DD7070A88
:100D0800D8B490D7010AD8B493D7030AD8B496D7E1
:100D1800010AD8B499D71200106E0F04D8B402D0C3
:100D28000F6613D11F0E1064B5D00FD10FB002D0CB
:100D3800929001D0928009D10FB002D0929201D046
:100D4800928203D10FB002D0929401D09284FDD048
:100D58000FB002D0929601D09286F7D00FB002D091
:100D6800929801D09288F1D00FB002D0929A01D017
:100D7800928AEBD00FB002D0939001D09380E5D047
:100D88000FB002D0939201D09382DFD00FB002D07F
:100D9800939401D09384D9D00FB002D0939601D008
:100DA8009386D3D00FB002D0939801D09388CDD03A
:100DB8000FB002D0939A01D0938AC7D00FB002D057
:100DC800939C01D0938CC1D00FB002D0939E01D0D8
:100DD800938EBBD00FB002D0949001D09480B5D040
:100DE8000FB002D0949201D09482AFD00FB002D04D
:100DF800949401D09484A9D00FB002D0949C01D0CF
:100E0800948CA3D00FB002D0949E01D0948E9DD024
:100E18000FB002D0959001D0958097D00FB002D036
:100E2800959201D0958291D00FB002D0959401D0BF
:100E380095848BD00FB002D0959601D0958685D039
:100E48000FB002D0959801D095887FD00FB002D00E
:100E5800959A01D0958A79D00FB002D0959C01D08F
:100E6800958C73D00FB002D0959E01D0958E6DD021
:100E78000FB002D0969001D0968067D00FB002D004
:100E8800969201D0968261D00FB002D0969401D08C
:100E980096845BD01050000AD8B448D7010AD8B459
:100EA8004BD7030AD8B44ED7010AD8B451D7070A8A
:100EB800D8B454D7010AD8B457D7030AD8B45AD7E4
:100EC800010AD8B45DD70F0AD8B460D7010AD8B4DC
:100ED80063D7030AD8B466D7010AD8B469D7070A12
:100EE800D8B46CD7010AD8B46FD7030AD8B472D76C
:100EF800010AD8B475D71F0AD8B478D7030AD8B46A
:100F08007BD7070AD8B47ED7010AD8B481D7030A99
:100F1800D8B484D7010AD8B487D70F0AD8B48AD7E7
:100F2800010AD8B48DD7030AD8B490D7010AD8B427
:100F380093D7070AD8B496D7010AD8B499D7030A21
:100F4800D8B49CD7010AD8B49FD71200126E1F0ECE
:100F580012646AD066D080A062D0116A112A11503A
:100F68000F6E106AC3D080A25AD0F7D780A457D08A
:100F7800F4D780A654D0F1D780A851D0EED780AA54
:100F88004ED0EBD781A04BD0E8D781A248D0E5D787
:100F980081A445D0E2D781A642D0DFD781A83FD02F
:100FA800DCD781AA3CD0D9D781AC39D0D6D781AE8D
:100FB80036D0D3D782A033D0D0D782A230D0CDD7E5
:100FC80082A42DD0CAD782A82AD0C7D782AA27D070
:100FD800C4D782AC24D0C1D782AE21D0BED783A0DB
:100FE8001ED0BBD783A21BD0B8D783A418D0B5D73F
:100FF80083A615D0B2D783A812D0AFD783AA0FD0B3
:10100800ACD783AC0CD0A9D783AE09D0A6D784A01F
:1010180006D0A3D784A203D0A0D784B49ED7116AE0
:101028009ED70F68106862D01250000AD8B493D7C0
:10103800010AD8B498D7030AD8B498D7010AD8B403
:1010480098D7070AD8B498D7010AD8B498D7030A0A
:10105800D8B498D7010AD8B498D70F0AD8B498D773
:10106800010AD8B498D7030AD8B498D7010AD8B4D3
:1010780098D7070AD8B498D7010AD8B498D7030ADA
:10108800D8B498D7010AD8B498D71F0AD8B498D733
:10109800010AD8B498D7030AD8B498D7010AD8B4A3
:1010A80098D7070AD8B498D7010AD8B498D7030AAA
:1010B800D8B498D7010AD8B498D70F0AD8B498D713
:1010C800010AD8B498D7030AD8B498D7010AD8B473
:1010D80098D7070AD8B498D7010AD8B498D7030A7A
:1010E800D8B498D7010AD8B498D79BD71200E80E7D
:1010F800106E030E116E000E126E000E136E6EEC63
:101108000CF043C00FF044C010F045C011F046C0C9
:1011180012F03C0E136E000E146E000E156E000ECB
:10112800166E5FEC0BF00FC01BF010C01CF011C066
:101138001DF012C01EF03A0E1F6E000E206E000E3B
:10114800216E000E226EB7EC0AF01BC0CBF01CC05B
:10115800CCF01DC0CDF01EC0CEF0000E436E000EC8
:10116800446E000E456E000E466E000120EEACF097
:1011780001D80DD00500FA6EDE50FD6EDE50FE6E11
:10118800F850FF6EFA50010E166E060E1200080E89
:10119800176E560E166E01D80DD005000001FA6EB6
:1011A8000001A251FD6E0001A351FE6EF850FF6EC2
:1011B800FA501200000120EEACF001D80DD0050065
:1011C800FA6EDE50FD6EDE50FE6EF850FF6EFA507D
:1011D800010E166E060E1200CBC03FF0CCC040F0D8
:1011E800CDC041F0CEC042F0000120EEA4F001D8FD
:1011F8000AD00500FA6EDE50FD6EDE50FE6EF85025
:10120800FF6EFA5012000E0EAAEC07F010500F10E5
:10121800D8A402D0010E01D0000E136E0E0E64EC9D
:1012280005F01200000E0F6E20EE0CF04D50D9267E
:101238004E50DA22DF5090EC06F0000E0F6E20EED2
:101248000DF04D50D9264E50DA22DF5090EC06F0C2
:10125800000E136E20EE0CF04D50D9264E50DA22B7
:10126800DF5064EC05F0000E136E20EE0DF04D50CB
:10127800D9264E50DA22DF5064EC05F00FD0000E6C
:10128800926E22D0000E936E1FD0000E946E1CD06A
:10129800000E956E19D0000E966E16D020EE0EF048
:1012A8004D50D9264E50DA22DF50000AD8B4E7D77D
:1012B800010AD8B4E7D7030AD8B4E7D7010AD8B4E3
:1012C800E7D7070AD8B4E7D7380E19EC0AF0160E94
:1012D80019EC0AF00C0E19EC0AF07EEC0CF0120076
:1012E8000600EACF04F0E1CF05F0E2CF06F0D9CF4F
:1012F80007F0DACF08F0F3CF09F0F4CF0AF0F6CF11
:101308000BF0F7CF0CF0F8CF0DF0F5CF0EF0F2A2FE
:101318000DD0F29201D80AD00500FA6E4750FD6E42
:101328004850FE6EF850FF6EFA501200F0A00FD031
:10133800F09020EE49F001D80AD00500FA6EDE5090
:10134800FD6EDE50FE6EF850FF6EFA5012000EC0B1
:10135800F5FF0DC0F8FF0CC0F7FF0BC0F6FF0AC081
:10136800F4FF09C0F3FF08C0DAFF07C0D9FF06C0C1
:10137800E2FF05C0E1FF04C0EAFF03C0E9FF02C0C5
:10138800FBFF01C0FAFF1100140E0F6E030E106E62
:10139800130E0EEC0CF020EEA2F00F0EEECFDEFFD7
:1013A800E82EFCD70001000E176E0001A20E166E83
:1013B8009CEC0CF0010E0F6E070E90EC06F0190E67
:1013C800116E460E106E000E136E020E126E070E90
:1013D800F8EC0AF0000120EEACF001D80DD00500C1
:1013E800FA6EDE50FD6EDE50FE6EF850FF6EFA505B
:1013F800000E166E000E1200080E176E450E166EC1
:1014080001D80DD005000001FA6E0001A251FD6E51
:101418000001A351FE6EF850FF6EFA501200000E44
:101428000F6E0E0E90EC06F01200156E000E136E85
:1014380020EE0CF04D50D9264E50DA22DF5064ECE5
:1014480005F00FD015C080FF22D015C081FF1FD036
:1014580015C082FF1CD015C083FF19D015C084FFAA
:1014680016D020EE0EF04D50D9264E50DA22DF501D
:10147800000AD8B4E7D7010AD8B4E7D7030AD8B422
:10148800E7D7010AD8B4E7D7070AD8B4E7D7010ED7
:10149800136E20EE0DF04D50D9264E50DA22DF5053
:1014A80064EC05F0000E106E500E0F6E42EC0CF05E
:1014B800000E136E20EE0DF04D50D9264E50DA2254
:1014C800DF5064EC05F01200156E010E136E20EE6D
:1014D8000CF04D50D9264E50DA22DF5064EC05F05E
:1014E8000FD015C080FF22D015C081FF1FD015C0B6
:1014F80082FF1CD015C083FF19D015C084FF16D0F9
:1015080020EE0EF04D50D9264E50DA22DF50000A58
:10151800D8B4E7D7010AD8B4E7D7030AD8B4E7D7CD
:10152800010AD8B4E7D7070AD8B4E7D7010E136E73
:1015380020EE0DF04D50D9264E50DA22DF5064ECE3
:1015480005F0000E106E500E0F6E42EC0CF0000EFF
:10155800136E20EE0DF04D50D9264E50DA22DF5092
:1015680064EC05F01200000E236E000E246E000ECF
:10157800256E000E266E22501F1020102110D8B4A0
:101588002AD0010E276E06D0D8901F362036213675
:101598002236272A22AEF8D7D89023362436253685
:1015A80026361F501B5C20501C5821501D582250B5
:1015B8001E58D8A009D01F501B5E20501C5A21501D
:1015C8001D5A22501E5A2380D890223221322032AE
:1015D8001F32272EE1D723C01BF024C01CF025C0E2
:1015E8001DF026C01EF01200146E1250020A1310CD
:1015F800D8B405D01250030A1310D8A428D012501A
:10160800020A1310D8B404D0000E136E126817D053
:10161800000E136EFD0E126E12D011C048F010C0ED
:1016280047F01250FE0B2AEC0CF010D011C04AF013
:1016380010C049F01250FE0BD4EC0BF007D0145038
:10164800060AD8B4EAD7010AD8B4F0D7F28E120045
:101658002F502C102D102E10D8B424D0010E306E1F
:1016680006D0D8902C362D362E362F36302A2FAE6F
:10167800F8D72C50285C2D5029582E502A582F5016
:101688002B58D8A008D02C50285E2D50295A2E50FF
:101698002A5A2F502B5AD8902F322E322D322C32D4
:1016A800302EE7D728C028F029C029F02AC02AF010
:1016B8002BC02BF01200000E176E000E186E000ED5
:1016C800196E000E1A6E0FA008D01350172614506A
:1016D80018221550192216501A22D890133614368B
:1016E80015361636D8901232113210320F32125087
:1016F8000F1010101110D8A4E6D717C00FF018C09B
:1017080010F019C011F01AC012F0120014D016C04F
:10171800F6FF17C0F7FFF86A070EF76403D0080052
:10172800F55005D0F6CFE9FFF7CFEAFFEF5068ECA8
:101738000AF0164A172A16C0F6FF17C0F7FFF86A0C
:10174800070EF76403D00800F55005D0F6CFE9FF7F
:10175800F7CFEAFFEF500009D8B41200D8D700EE4F
:1017680060F0420EEE6AE806FDE100EE43F00A0E74
:10177800EE6AE806FDE1280EF66E190EF76E000E09
:10178800F86E00EEB1F010EE0FF00900F5CFEEFFA5
:10179800E550E150FAE1000EF86E0001AAEF0CF0F6
:1017A8000F6EF0900FA202D0F18A01D0F19A0FA02B
:1017B80002D0F18E01D0F19E0FAC02D0F18001D0A1
:1017C800F1900FAC02D0F08C01D0F09C93820FAE58
:1017D80002D0F08601D0F09612000001000E326EA1
:1017E8000001810E316E080E346E5B0E336E3FC001
:1017F80035F040C036F041C037F042C038F032EC26
:1018080004F00001000E176E0001810E166E8AECBE
:101818000BF012001F6E20EEB1F010EE20F00F0E4C
:10182800DECFE6FFE82EFCD71FC02CF00FC02DF04E
:1018380010C02EF020EE2EF000EE1DF00F0EDDCFC2
:10184800EDFFE82EFCD7E92AEA2212000F6EF29289
:101858000FA202D0F18C01D0F19C0FA002D0F18E22
:1018680001D0F19E93800FAC02D0F18001D0F190AD
:101878000FAE02D0F28801D0F298120010500F106B
:10188800D8B412D0000E126E000E116E0C0E115C40
:10189800000E1258D8B004D000F0114A122AF6D718
:1018A8000F06D8A01006EAD71200176E1650D8B443
:1018B80004D0000E196EC00E03D0000E196E800EF3
:1018C800186E18C016F00F0E17161650171019ECD0
:1018D8000AF012001350101011101210D8B409D0C9
:1018E8000C0E8CEC0CF01006000E115A125A135AFA
:1018F800F1D71200010E19EC0AF0030E106E000E5B
:10190800116E000E126E000E136E6EEC0CF01200CB
:101918000F6EFA0E00F0E82EFDD70F2EFAD7120040
:101928001417E21700000000FC18B21800000000AD
:1019380017C04EF016C04DF016EC09F01200010E5B
:101948004326000E4422452246221200C8EC09F024
:061958007BEC08F0FDD756
:020000040020DA
:08000000FFFFFFFFFFFFFFFF00
:020000040030CA
:0E000000240E3F1EFF8181FF0FC00FA00F4096
:00000001FF
